:020000041000EA
:101000004805002019100010000000009910001081
:1010100000040100000100001149124A124B00F0C7
:1010200018F8124880471249124A134B00F011F881
:101030001249134A134B00F00CF81349134A0020CD
:10104000521A02DD043A8850FCDC114880471148EE
:1010500080479B1A03DD043BC858D050FBDC704727
:1010600010F600100C000020440100209D1000101C
:1010700048F70010480500208808002088FA001072
:10108000880800208808002088080020CC3D002027
:1010900025EB001075900010FEE7000080B500AF52
:1010A00006F036FE06F07AFEBD4680BD80B500AF84
:1010B000124B1A68FF231B0213401A0A104B1A60C6
:1010C0000E4B1B68FF221A400E4B1A600C4B1B681C
:1010D000002B0ED00A4B1B681A020A4B1B68D31850
:1010E0000948191C02F0E8F9031C5A00074B1A6062
:1010F00002E0064B064A1A60BD4680BD000301406F
:10110000880800208C080020000024F4FC3F002008
:101110000048E80180B582B000AF7860304B002213
:101120001A60304B00221A602F4B00221A602F4B9E
:1011300000221A602E4B00221A702E4B00221A70C9
:101140002D4B01221A702D4B00221A602C4B0022CD
:101150001A602C4B00221A602B4B00221A602B4B7A
:1011600000221A602A4B00221A602A4B00221A60C1
:10117000254B1A68284B1A60284BAF2252001A6080
:10118000274B01221A60274B1B889BB21A1C264B47
:101190001A60264B1B78DBB21A1C234B1B68D21833
:1011A000214B1A60224B1A681F4B1B68D2181E4B2A
:1011B0001A60204B1A681C4B1B68D2181A4B1A6015
:1011C0001D4B01221A801D4B00221A801C4B7A688D
:1011D0001A601C4B01221A60BD4602B080BDC04699
:1011E00090080020200E0020B0130020401900209D
:1011F000D01E0020F01E0020D11E0020DC1E00208A
:10120000E01E0020881F0020941F0020981F00204F
:10121000D41E0020A01F0020E41E0020E81E002095
:10122000D81E002048050020F41E00204A0500209A
:101230004C05002050050020EC1E0020EE1E002072
:101240008C1F00209C1F002080B500AF0D4B1B7829
:10125000012B0BD002DC002B05D010E0022B08D0B4
:10126000032B09D00BE000F00FF808E000F05CF869
:1012700005E000F01BF802E000F056F8C046BD465D
:1012800080BDC046D01E002080B500AF054B0022B7
:101290001A70054B1B88002B02D1034B01221A80C8
:1012A000BD4680BDF01E0020EC1E002080B500AFC2
:1012B000174B1B68002B26D1164B00221A60164BC9
:1012C0001B88012B06D9144B1B88013B9AB2124B89
:1012D0001A8018E0114B1B88002B02D10F4B012202
:1012E0001A800E4B1A880C4B1A8000F0E3F800F0BD
:1012F000FDF90B4B1B68002B05D1054B01221A6031
:10130000044B01221A60074B00221A70BD4680BDB3
:10131000A01F0020881F0020EE1E0020EC1E0020D1
:10132000E01E0020F01E002080B500AF544B1B884B
:10133000012B06D9524B1B88013B9AB2504B1A80A5
:101340009BE0504B1B88002B02D14E4B01221A8090
:101350004C4B1A884A4B1A804B4B1B78012B26D0DA
:1013600002DC002B05D084E0022B40D0032B62D09E
:101370007FE0464B00221A60454B00221A60454B25
:1013800000221A60444B00221A60444B00221A606B
:10139000434B00221A60434B1A68434B1A6000F01B
:1013A00089F800F0A3F9384B01221A7065E000F0CB
:1013B00081F83D4B1B68002B05D03B4B1B685A1E28
:1013C000394B1A6001E000F0ABF900F08FF9304BB7
:1013D0001B68012B0AD1334B1B68AE225200D21A74
:1013E0002F4B1A60284B02221A7046E045E000F0AD
:1013F00061F800F07BF92A4B1B68002B05D0284BC5
:101400001B685A1E264B1A6037E0284B1B78012BAD
:1014100006D1264B00221A701B4B00221A7006E0E0
:10142000234B1A681D4B1A60174B03221A70174B77
:1014300001221A6021E0194B1B68002B05D0174BC5
:101440001B685A1E154B1A6012E0104B1B68002BCC
:101450000ED10F4B00221A60124B1A68124B1A6001
:10146000094B01221A7000F025F800F03FF904E062
:1014700003E0054B00221A70C046BD4680BDC04641
:10148000EE1E0020EC1E0020F01E0020A01F0020F9
:10149000881F0020DC1E0020E01E0020D41E00203B
:1014A000E81E0020941F0020E41E0020D01E002013
:1014B000981F002080B500AF084B181C00F016F8EC
:1014C000074B181C00F012F8064B181C00F00EF821
:1014D000054B181C00F00AF8BD4680BD900800209E
:1014E000200E0020B01300204019002080B584B0E9
:1014F00000AF78607B681B68012B00D0EEE0794B71
:101500001B6806339B007A68D318FB607B681B79E5
:10151000062B00D9E2E09A00734BD3181B689F4654
:101520007B689B68002B05D17B681B691A78FB6878
:101530001A701AE07B681B7B1A1C01239340DAB2F5
:101540000823FB181A707B681B691B780822BA18DD
:1015500012781340DBB2002B03D0FB6801221A7013
:1015600003E0FB6800221A70B8E0B7E07B689B6874
:10157000002B05D17B681B691A78FB681A701BE089
:101580007B681B7B1A1C01239340DAB20823FB18EB
:101590001A707B681B6919780823FB181A780B1CD2
:1015A0001340DBB2002B03D0FB6801221A7003E06A
:1015B000FB6800221A7091E090E07B689B68002B2A
:1015C00005D17B681B691A88FB681A801AE07B6862
:1015D0001B7B1A1C012393409AB20823FB181A8024
:1015E0007B681B691B880822BA18128813409BB2BB
:1015F000002B03D0FB6801221A8003E0FB68002265
:101600001A806BE06AE07B689B68002B05D17B68E1
:101610001B691A88FB681A801BE07B681B7B1A1CFD
:10162000012393409AB20823FB181A807B681B6938
:1016300019880823FB181A880B1C13409BB2002B37
:1016400003D0FB6801221A8003E0FB6800221A80A5
:1016500044E043E07B689B68002B05D17B681B69F5
:101660001A68FB681A6013E07B681B7B1A1C012355
:101670009340BB607B681B691B68BA68134003D04A
:10168000FB6801221A6003E0FB6800221A6025E073
:1016900024E07B689B68002B05D17B681B691A6876
:1016A000FB681A6013E07B681B7B1A1C01239340C4
:1016B000BB607B681B691B68BA68134003D0FB687A
:1016C00001221A6003E0FB6800221A6006E005E0D0
:1016D0007B681B691A68FB681A60C046BD4604B087
:1016E00080BDC046E01E002094EB001080B500AF26
:1016F000094B1A68094B1A60074B1B685A1C064BAA
:101700001A60054B1A685E23FF339A4202D9024BD6
:1017100000221A60BD4680BDE01E0020DC1E0020B5
:1017200080B584B000AFBA4B1B78022B0BD002DC23
:10173000012B05D010E0032B08D0042B09D00BE0BF
:10174000B44BFB600EE0B44BFB600BE0B34BFB60B3
:1017500008E0B34BFB6005E0AE4BFB60AC4B0122F5
:101760001A70C046AF4B00221A60FB681B68012B41
:1017700000D0DBE2AC4B1B6806339B00FA68D31841
:10178000BB60AA4B1B6806339B00FA68D3187B60CA
:10179000A74B1B68012B00D06FE1FB681B79062B60
:1017A00000D9C3E29A00A34BD3181B689F46FB687D
:1017B0009B68002B19D1BB681A787B681B789A420A
:1017C00023D2BB681A78FB681B7D9A421DD87B68C0
:1017D0001A78FB681B7D9A4217D3924B01221A603C
:1017E000924B1A68944B1A6046E1BB681B78002B39
:1017F0000BD17B681B78002B07D08A4B01221A6023
:101800008A4B1A688C4B1A6036E135E1FB689B689D
:10181000002B1FD1BB681A787B681B7852B25BB271
:101820009A4227DABB681A78FB681B7D52B25BB21A
:101830009A421FDC7B681A78FB681B7D52B25BB250
:101840009A4217DB774B01221A60784B1A687A4B61
:101850001A6011E1BB681B78002B0BD17B681B78E9
:10186000002B07D06F4B01221A60704B1A68724B25
:101870001A6001E100E1FB689B68002B19D1BB688D
:101880001A887B681B889A4223D2BB681A88FB6837
:101890009B8A9A421DD87B681A88FB689B8A9A4269
:1018A00017D3604B01221A60604B1A68624B1A60B2
:1018B000E2E0BB681B88002B0BD17B681B88002BE8
:1018C00007D0584B01221A60584B1A685A4B1A60BD
:1018D000D2E0D1E0FB689B68002B1FD1BB681A885F
:1018E0007B681B8812B21BB29A4227DABB681A883F
:1018F000FB689B8A12B21BB29A421FDC7B681A8873
:10190000FB689B8A12B21BB29A4217DB454B01223D
:101910001A60464B1A68484B1A60ADE0BB681B88DA
:10192000002B0BD17B681B88002B07D03D4B01227D
:101930001A603E4B1A68404B1A609DE09CE0FB68C1
:101940009B68002B19D1BB681A687B681B689A4298
:1019500023D2BB681A68FB685B699A421DD87B6812
:101960001A68FB685B699A4217D32E4B01221A60F2
:101970002E4B1A68304B1A607EE0BB681B68002B48
:101980000BD17B681B68002B07D0264B01221A6005
:10199000264B1A68284B1A606EE06DE0FB689B6866
:1019A000002B19D1BB681A687B681B689A4223DA3E
:1019B000BB681A68FB685B699A421DDC7B681A6821
:1019C000FB685B699A4217DB164B01221A60174BC2
:1019D0001A68194B1A604FE0BB681B68002B0BD1CB
:1019E0007B681B68002B07D00E4B01221A600F4B3F
:1019F0001A68114B1A603FE03EE0BB681A687B68CA
:101A00001B68101C191C0AF093FE031E16D132E04D
:101A1000D11E002090080020200E0020B0130020CE
:101A200040190020881F0020DC1E0020E01E00203E
:101A3000D81E0020B0EB0010901F0020BB681A6871
:101A4000FB685B69101C191C0AF07CFE031E00D1A8
:101A500011E07B681A68FB685B69101C191C0AF0AE
:101A600085FE031E00D106E0B24B01221A60B24B84
:101A70001A68B24B1A60C04658E1FB681B79062B06
:101A800000D953E19A00AE4BD3181B689F46FB6800
:101A90009B68002B19D1BB681A787B681B789A4227
:101AA00023D9BB681A78FB681B7D9A421DD37B68DB
:101AB0001A78FB681B7D9A4217D89E4B01221A6048
:101AC0009D4B1A689D4B1A6030E1BB681B78002B58
:101AD0000BD07B681B78002B07D1964B01221A6034
:101AE000954B1A68954B1A6020E11FE1FB689B68D3
:101AF000002B1FD1BB681A787B681B7852B25BB28F
:101B00009A4227DDBB681A78FB681B7D52B25BB234
:101B10009A421FDB7B681A78FB681B7D52B25BB26E
:101B20009A4217DC834B01221A60834B1A68834B5D
:101B30001A60FBE0BB681B78002B0BD07B681B781E
:101B4000002B07D17B4B01221A607B4B1A687B4B21
:101B50001A60EBE0EAE0FB689B68002B19D1BB68D8
:101B60001A887B681B889A4223D9BB681A88FB684D
:101B70009B8A9A421DD37B681A88FB689B8A9A428B
:101B800017D86C4B01221A606B4B1A686B4B1A60AA
:101B9000CCE0BB681B88002B0BD07B681B88002B1C
:101BA00007D1644B01221A60634B1A68634B1A60B9
:101BB000BCE0BBE0FB689B68002B1FD1BB681A88A8
:101BC0007B681B8812B21BB29A4227DDBB681A8859
:101BD000FB689B8A12B21BB29A421FDB7B681A8891
:101BE000FB689B8A12B21BB29A4217DC514B01224E
:101BF0001A60514B1A68514B1A6097E0BB681B88FA
:101C0000002B0BD07B681B88002B07D1494B01228E
:101C10001A60494B1A68494B1A6087E086E0FB68F6
:101C20009B68002B19D1BB681A687B681B689A42B5
:101C300023D9BB681A68FB685B699A421DD37B682D
:101C40001A68FB685B699A4217D83A4B01221A60FE
:101C5000394B1A68394B1A6068E0BB681B68002B67
:101C60000BD07B681B68002B07D1324B01221A6016
:101C7000314B1A68314B1A6058E057E0FB689B689B
:101C8000002B19D1BB681A687B681B689A4223DD58
:101C9000BB681A68FB685B699A421DDB7B681A683F
:101CA000FB685B699A4217DC224B01221A60224BC7
:101CB0001A68224B1A6039E0BB681B68002B0BD0F6
:101CC0007B681B68002B07D11A4B01221A601A4B44
:101CD0001A681A4B1A6029E028E0BB681A687B680A
:101CE0001B68101C191C0AF037FD031E00D11DE0F3
:101CF000BB681A68FB685B69101C191C0AF036FD8A
:101D0000031E00D112E07B681A68FB685B69101C37
:101D1000191C0AF017FD031E00D107E0054B012234
:101D20001A60054B1A68054B1A60C046BD4604B0E0
:101D300080BDC046881F0020E01E0020901F0020AC
:101D4000CCEB001080B582B000AF7860BD4602B029
:101D500080BDC04680B500AF00F01AF8021C012318
:101D600013405A1E9341DBB2181CBD4680BDC046CD
:101D700080B500AF0549054B9B889BB2C0229201FC
:101D800013439BB28B80BD4680BDC046000005401A
:101D900080B500AF024B1B889BB2181CBD4680BDAE
:101DA0000000054080B582B000AF786039608223C2
:101DB0005B001B6839687A68081C111C9847BD468F
:101DC00002B080BD80B586B000AFF860B9607A60BF
:101DD0001A1CFB1C1A70294A284B9B889BB2FF21B6
:101DE0008B439BB293802549244B9B889BB2C02296
:101DF000920113439BB28B80FB1C1B78002B08D0F5
:101E00001E4A1E4B9B889BB261210B439BB2938061
:101E100007E01A4A194B9B889BB2A1210B439BB246
:101E2000938000233B611AE000237B610CE0BB68D8
:101E30001A68FB681A60BB680433BB60FB68043334
:101E4000FB607B6901337B617B69032BEFD9C04663
:101E5000FFF780FF031EFBD13B6901333B613A6909
:101E60007B689A42E0D3054A044B9B889BB2FF21D2
:101E70008B439BB29380BD4606B080BD00000540F9
:101E800080B584B000AF786039600023FB6011E05A
:101E900080235B001B687A68101C9847C046FFF7D8
:101EA00059FF031EFBD17B680133FF337B60FB6866
:101EB0000133FB60FA683B689A42E9D3BD4604B03F
:101EC00080BDC04680B586B000AFF860B9607A606A
:101ED00000233B6115E000237B610CE0FB681A687E
:101EE000BB681A60BB680433BB60FB680433FB60EB
:101EF0007B6901337B617B69032BEFD93B6901333C
:101F00003B613A697B689A42E5D3BD4606B080BD25
:101F100080B582B000AF786039607A683B68101C89
:101F2000191CFFF73FFFBD4602B080BD90B585B0DC
:101F300000AFF8607A600B23FB180A1C1A700B23A1
:101F4000FB181B789B08DBB2181C0B23FB181B78B3
:101F50009B08DBB21A1CFB6804329200D3580B2298
:101F6000BA18127803210A40D200111CF8228A40C4
:101F7000D2431A40111CFB68021D9200D150FB682D
:101F80005B6F0B22BA1812785200111C03228A4090
:101F9000D2431A40FB685A670B23FB181B78DB08F7
:101FA000DBB2181C0B23FB181B78DB08DBB21A1CF6
:101FB000FB6810329200D3580B22BA18127807210E
:101FC0000A409200111C04228A40D2431A40111C7C
:101FD000FB68021C10329200D1500B23FB181B78B7
:101FE000DB08DBB2181C0B23FB181B78DB08DBB209
:101FF0001A1CFB6810329200D2587B685B781C1C5C
:102000000B23FB181B7807210B409B009C40231CD3
:102010001A43111CFB68021C10329200D150FB685D
:102020001D4A93420BD1FB681B6E0B22BA18127823
:10203000012191400A1CD2431A40FB681A667B6852
:102040005A680B23FB181B789A40FB685A600B23D5
:10205000FB181B789B08DBB2181C0B23FB181B78A2
:102060009B08DBB21A1CFB6804329200D2587B68D2
:102070001B781C1C0B23FB181B7803210B40DB0077
:102080009C40231C1A43111CFB68021D9200D15076
:10209000BD4605B090BDC0460002044080B500AF0B
:1020A000024BC3225A62BD4680BDC04600000140BB
:1020B00080B500AF054BC0225A62C046034B5B6A35
:1020C00004221340FAD1BD4680BDC0460000014045
:1020D00080B500AF044A044B9B8C9BB201210B439B
:1020E0009BB29384BD4680BD0010014080B582B094
:1020F00000AF7860FFF7DCFF0C4A0C4B1B680C4903
:1021000019407B689B6819437B685B680B431360CD
:10211000FFF7C4FF7B685B781A1C7B681B78101C78
:10212000191C00F039F8BD4602B080BD0003014023
:10213000FFFFF0FF80B582B000AF021CBB1D1A800C
:10214000FFF7B6FF094B094A1169BA1D12880A4305
:102150001A61C046054B1A688023DB051340F9D18C
:10216000FFF79CFFBD4602B080BDC04600030140A2
:1021700080B582B000AF021CBB1D1A80054B9B6866
:10218000BA1D128813405A1E9341DBB2181CBD467B
:1021900002B080BD0003014080B584B000AF78601C
:1021A0003960FFF785FF214B1A68FF231B0213409C
:1021B0001B0AFB601D4B1D4A12681D4911403A68FD
:1021C0000A431C490A431A60C046184B1A68802308
:1021D000DB051340F9D1FA687B689A4206D8FA68A1
:1021E0007B68101C191C00F053F805E0FA687B6846
:1021F000101C191C00F022F80C4B0C4A12680E49F6
:1022000011407A6812020A430A490A431A60C0461A
:10221000064B1A688023DB051340F9D1FFF73EFF18
:10222000FEF744FFBD4604B080BDC0460003014038
:1022300000FF0FC00000F03FFF000FC080B582B06C
:1022400000AF7860396014E07B689B087B600D4BC1
:102250000C4A12680C4911407A6812020A430B4971
:102260000A431A60C046074B1A688023DB051340F7
:10227000F9D13B689A007B689A42E5D3BD4602B02B
:1022800080BDC04600030140FF000FC00000F03FCA
:1022900080B582B000AF7860396019E07B68002BB0
:1022A00001D101237B607B689B007B600C4B0C4A57
:1022B00012680C4911407A6812020A430A490A431B
:1022C0001A60C046064B1A688023DB051340F9D11B
:1022D0007B689A003B689A42E0D3BD4602B080BD5D
:1022E00000030140FF000FC00000F03F80B500AFC9
:1022F000024B1B68181CBD4680BDC046FC3F002039
:1023000080B584B000AFF860B9607A60FA68BB68E5
:102310000B498C4663449B00D3185A6880235B00AA
:102320001A407B681B681A43F968BB6804488446F6
:1023300063449B00CB185A60BD4604B080BDC046C4
:10234000D602000080B582B000AF786039601020FE
:10235000FFF7F0FE3B681A687B681A603B685A68B2
:102360007B685A603B689A687B689A62BD4602B097
:1023700080BDC04680B582B000AF78600A1CFB1CEF
:102380001A707B681B68074A1A407B681A607B6872
:102390001A68FB1C1B789B011A437B681A60BD46B8
:1023A00002B080BD3FFCFFFF80B582B000AF786017
:1023B0000A1CFB1C1A707B681B68074A1A407B6862
:1023C0001A607B681A68FB1C1B789B021A437B68A7
:1023D0001A60BD4602B080BDFFFBFFFF80B582B032
:1023E00000AF786039607B68DA683B68012199400A
:1023F0000B1C1A437B68DA60BD4602B080BDC04644
:1024000080B584B000AFF860B960FB1D1A70FB683E
:102410001A69FB1D1978BB6899400B1C1A43FB68AD
:102420001A61BD4604B080BD80B582B000AF78604F
:1024300039607B681A693B688021490299400B1C0E
:102440001A437B681A61BD4602B080BD80B586B074
:1024500000AFF860B960FB1D1A70FB685B69BA6871
:102460008021490291400A1CD2431A40FB685A61FC
:10247000BB6801229A40131C7B61FB1D1B78BA6864
:10248000103293407A6913437B61FB685A697B6918
:102490001A43FB685A61BD4606B080BD80B582B064
:1024A00000AF786039603B681A687B689A603B6867
:1024B0005A687B68DA603B689A687B681A61BD4637
:1024C00002B080BD80B586B000AFF8607A600B23A3
:1024D000FB180A1C1A70FB689B680B4A1A40FB68C1
:1024E0009A600B23FB181B789B027B617B68DB02E5
:1024F0007A6913437B61FB689A687B691A43FB68BE
:102500009A60BD4606B080BDFFF3FFFF80B582B084
:1025100000AF786039607B689B68074A1A407B6827
:102520009A607B689A683B681B041A437B689A60D0
:10253000BD4602B080BDC046FFFF00FC80B582B042
:1025400000AF786039607B683A681A60BD4602B0B7
:1025500080BDC04680B582B000AF78607B68DB6824
:10256000802252001A437B68DA60BD4602B080BD0B
:1025700080B582B000AF78607B68054A934200D096
:1025800003E00420FFF7D6FDC046BD4602B080BD83
:102590000000044880B582B000AF78607B68181CEA
:1025A000FFF7E6FFBD4602B080BDC04680B584B0EF
:1025B00000AF78600A1CFB1C1A707B68181CFFF7C0
:1025C000E9FF7B68181CFFF7C5FF7B681B68FB6091
:1025D000FB68074A1340FB60FB1C1B789B03FA68EF
:1025E0001343FB607B68FA681A60BD4604B080BD87
:1025F000FF3FFFFF80B584B000AF786039607B6833
:102600001B68FB603B681B0CDA43FB681340FB60F4
:102610003B681B041B0CFA681343FB607B68FA6879
:102620001A60BD4604B080BD80B582B000AF78604E
:1026300039603B681A687B685A613B685B799B0626
:10264000DB0FDBB21A057B685A603B681B791B07FE
:102650001B0FDBB21A1C7B685A623B685B791B0755
:102660001B0FDBB21A1C7B681A623B685B79DB06C6
:10267000DB0FDBB21A1C7B689A613B681B791B0677
:102680001B0FDBB21A1C7B68DA62BD4602B080BD4C
:1026900080B584B000AF7860081C111CFB1C021CC4
:1026A0001A70BB1C0A1C1A707B685B68BB60BB6835
:1026B00003229343BB60FB1C1B78BA681343BB60C7
:1026C0007B68BA685A607B685B69FB60BB1C1B78DF
:1026D000012B05D1FB688022D2001343FB6003E08D
:1026E000FB68044A1340FB607B68FA685A61BD4688
:1026F00004B080BDFFFBFFFF80B584B000AF786001
:10270000081C111CFB1C021C1A70BB1C0A1C1A7032
:102710007B685B68FB60FB680C229343FB60FB1CDF
:102720001B789B00FA681343FB607B68FA685A6069
:102730007B685B69BB60BB68074A1340BB60BB1C1E
:102740001B781B02BA681343BB607B68BA685A6186
:10275000BD4604B080BDC046FFFCFFFF80B584B01D
:1027600000AF78600A1CFB1C1A707B685B68FB601A
:10277000FB68074A1340FB60FB1C1B781B03FA68CD
:102780001343FB607B68FA685A60BD4604B080BDA5
:10279000FFCFFFFF90B585B000AF78600C1C101C18
:1027A000191CFB1C221C1A70BB1C021C1A707B1CFF
:1027B0000A1C1A707B685B69FB607B685B68BB60A6
:1027C000BB68174A1340BB60FB1C1B789B04BA68AC
:1027D0001343BB607B68BA685A60BB1C1B78012B33
:1027E00005D1FB68802252041343FB6003E0FB68C1
:1027F0000C4A1340FB607B1C1B78002B05D0FB6848
:10280000802212041343FB6003E0FB68064A134076
:10281000FB607B68FA685A61BD4605B090BDC04652
:10282000FFFFF3FFFFFFFFFEFFFF7FFF80B584B0D8
:1028300000AF78600A1CFB1C1A707B685B68FB6049
:10284000FB68074A1340FB60FB1C1B789B03FA687C
:102850001343FB607B68FA685A60BD4604B080BDD4
:10286000FF3FFFFF80B584B000AF78600A1CFB1CFF
:102870001A707B685B68FB60FB68074A1340FB606B
:10288000FB1C1B781B02FA681343FB607B68FA6829
:102890005A60BD4604B080BDFFFCFFFF80B584B028
:1028A00000AF78600A1CFB1C1A707B685B68FB60D9
:1028B000FB68074A1340FB60FB1C1B789B02FA680D
:1028C0001343FB607B68FA685A60BD4604B080BD64
:1028D000FFF3FFFF80B584B000AF78607B685B6872
:1028E000FB60FB68064A1340FB60FB6880225202D3
:1028F0001343FB607B68FA685A60BD4604B080BD34
:10290000FFFFFEFF80B584B000AF7860081C111C8B
:10291000FB1C021C1A70BB1C0A1C1A707B685B68CB
:10292000BB60BB68174A1340BB60BB688022920241
:102930001343BB607B68BA685A607B685B69FB6065
:10294000BB1C1B78002B05D0FB688022920313432D
:10295000FB6003E0FB680C4A1340FB60FB1C1B7828
:10296000012B05D1FB688022D2031343FB6003E0F7
:10297000FB68064A1340FB607B68FA685A61BD46F3
:1029800004B080BDFFFFFDFFFFFFDFFFFFFFBFFFC4
:1029900080B586B000AFF860B9607A60FB681B68EC
:1029A0007B617B692A4A13407B61BB685B789B042F
:1029B0007A6913437B617B69264A13407B617B689C
:1029C0005B781B057A6913437B617B69224A13405C
:1029D0007B61BB689B78DB057A6913437B617B690C
:1029E0001E4A13407B617B689B781B067A69134300
:1029F0007B617B691A4A13407B61BB68DB78DB062D
:102A00007A6913437B617B69164A13407B617B685B
:102A1000DB785B077A6913437B617B69F022934320
:102A20007B61BB681B781B017A6913437B617B69FF
:102A30000D4A13407B617B681B781B027A69134344
:102A40007B61FB687A691A60BD4606B080BDC046EE
:102A5000FFFFF3FFFFFFCFFFFFFF7FFFFFFFFFFE43
:102A6000FFFFFFE7FFFFFF9FFFF0FFFF80B588B08C
:102A700000AFF8607A600B23FB180A1C1A701F2342
:102A8000FB180B22BA181278013A1A70FB681B68FF
:102A9000BB611F23FB181B78DB18DAB21723FB1866
:102AA00010321A701723FB181B7803229A40131C4C
:102AB000DA43BB691340BB617B685B781A1C172340
:102AC000FB181B789A40131CBA691343BB61172388
:102AD000FB181F22BA18127816321A701723FB1827
:102AE0001B7801229A40131CDA43BB691340BB6177
:102AF0007B689B781A1C1723FB181B789A40131CC1
:102B0000BA691343BB611F23FB181B78DB18DAB2C9
:102B10001723FB1819321A701723FB181B7803228E
:102B20009A40131CDA43BB691340BB617B68DB78B6
:102B30001A1C1723FB181B789A40131CBA691343FD
:102B4000BB611723FB181F22BA18127892001A7063
:102B50001723FB181B780F229A40131CDA43BB691A
:102B60001340BB617B681B781A1C1723FB181B786A
:102B70009A40131CBA691343BB61FB68BA691A60B7
:102B8000BD4608B080BDC04680B586B000AF786055
:102B9000081C111CFB1C021C1A70BB1C0A1C1A709E
:102BA0007B68A8229B58FB60FB1C1B78092B1AD85A
:102BB0009A001A4BD3181B689F4603233B610023DE
:102BC0007B6116E00C233B6102237B6111E0C02393
:102BD0009B003B6108237B610BE0C0231B013B6131
:102BE0000A237B6105E0C0239B013B610C237B61D1
:102BF000C0463B69DA43FB681340FB60BB1C1A7894
:102C00007B699A40131CFA681343FB607B68A82118
:102C1000FA685A50BD4606B080BDC046E8EB0010C9
:102C200080B582B000AF78607B68DB68802252009C
:102C30001A437B68DA60BD4602B080BD80B582B0C1
:102C400000AF78607B6801221A61BD4602B080BD8A
:102C500080B582B000AF78607A68A023DB059A4225
:102C600000D003E00220FFF765FAC046BD4602B07F
:102C700080BDC04680B582B000AF78607B68181C0C
:102C8000FFF7E6FFBD4602B080BDC04680B584B008
:102C900000AF78600A1CFB1C1A707B68181CFFF7D9
:102CA000E9FF7B68181CFFF7BBFF7B681B68FB60B4
:102CB000FB68074A1340FB60FB1C1B789B03FA6808
:102CC0001343FB607B68FA681A60BD4604B080BDA0
:102CD000FF3FFFFF80B582B000AF786039607B684E
:102CE000181CFFF7ABFF3B681A687B685A613B68AA
:102CF0005B7BDB06DB0FDBB21A057B685A603B6847
:102D00001B7B1B071B0FDBB21A1C7B685A623B68DC
:102D10001B7B1B061B0FDBB21A1C7B68DA623B684D
:102D20005B7B1B071B0FDBB21A1C7B681A623B68BC
:102D30005A687B689A613B689B6814225A407B689A
:102D40009A64BD4602B080BD80B584B000AF7860A3
:102D500039607B681B68FB603B681B0CDA43FB68CF
:102D60001340FB603B681B041B0CFA681343FB60B9
:102D70007B68FA681A60BD4604B080BD80B584B037
:102D800000AF7860081C111CFB1C021C1A70BB1CD5
:102D90000A1C1A707B685B68BB60BB6803229343A4
:102DA000BB60FB1C1B78BA681343BB607B68BA68C6
:102DB0005A607B685B69FB60BB1C1B78012B05D1EB
:102DC000FB688022D2001343FB6003E0FB68044AE7
:102DD0001340FB607B68FA685A61BD4604B080BD51
:102DE000FFFBFFFF80B584B000AF7860081C111CAA
:102DF000FB1C021C1A70BB1C0A1C1A707B685B68E7
:102E0000FB60FB680C229343FB60FB1C1B789B0060
:102E1000FA681343FB607B68FA685A607B685B69F9
:102E2000BB60BB68074A1340BB60BB1C1B781B021E
:102E3000BA681343BB607B68BA685A61BD4604B088
:102E400080BDC046FFFCFFFF80B584B000AF786056
:102E50000A1CFB1C1A707B685B68FB60FB68074AF6
:102E60001340FB60FB1C1B781B03FA681343FB60D9
:102E70007B68FA685A60BD4604B080BDFFCFFFFF93
:102E800080B584B000AF78600A1CFB1C1A707B68A8
:102E90005B69FB60FB6880229343FB60FB1C1B7833
:102EA000DB01FA681343FB607B68FA685A61BD4630
:102EB00004B080BD90B585B000AF78600C1C101CCC
:102EC000191CFB1C221C1A70BB1C021C1A707B1CD8
:102ED0000A1C1A707B685B68BB60BB681D4A1340A4
:102EE000BB60FB1C1B789B04BA681343BB607B6808
:102EF000BA685A607B685B69FB60BB1C1B78012B5E
:102F000005D1FB68802252041343FB6003E0FB6899
:102F1000114A1340FB602023FB181B78002B05D0BF
:102F2000FB68802212041343FB6003E0FB680B4A3A
:102F30001340FB60FB680A4A1340FB607B1C1B7854
:102F4000DB06FA681343FB607B68FA685A61BD468A
:102F500005B090BDFFFFF3FFFFFFFFFEFFFF7FFF08
:102F6000FFFFFFE780B584B000AF78600A1CFB1C50
:102F70001A707B685B68FB60FB68074A1340FB6064
:102F8000FB1C1B789B03FA681343FB607B68FA68A1
:102F90005A60BD4604B080BDFF3FFFFF80B584B0DE
:102FA00000AF78600A1CFB1C1A707B685B68FB60D2
:102FB000FB68074A1340FB60FB1C1B781B02FA6886
:102FC0001343FB607B68FA685A60BD4604B080BD5D
:102FD000FFFCFFFF80B584B000AF78600A1CFB1CCB
:102FE0001A707B685B68FB60FB68074A1340FB60F4
:102FF000FB1C1B789B02FA681343FB607B68FA6832
:103000005A60BD4604B080BDFFF3FFFF80B584B0B9
:1030100000AF78607B685B68FB60FB68064A134022
:10302000FB60FB68802252021343FB607B68FA68F6
:103030005A60BD4604B080BDFFFFFEFF80B584B07E
:1030400000AF7860081C111CFB1C021C1A70BB1C12
:103050000A1C1A707B685B68BB60BB68174A134028
:10306000BB60BB68802292021343BB607B68BA6876
:103070005A607B685B69FB60BB1C1B78002B05D02A
:10308000FB68802292031343FB6003E0FB680C4A59
:103090001340FB60FB1C1B78012B05D1FB688022D1
:1030A000D2031343FB6003E0FB68064A1340FB6056
:1030B0007B68FA685A61BD4604B080BDFFFFFDFF22
:1030C000FFFFDFFFFFFFBFFF80B586B000AFF860F6
:1030D000B9607A60FB681B687B617B692A4A134090
:1030E0007B61BB685B789B047A6913437B617B6976
:1030F000264A13407B617B685B781B057A69134322
:103100007B617B69224A13407B61BB689B78DB054E
:103110007A6913437B617B691E4A13407B617B683C
:103120009B781B067A6913437B617B691A4A1340BB
:103130007B61BB68DB78DB067A6913437B617B6963
:10314000164A13407B617B68DB785B077A6913431F
:103150007B617B69F02293437B61BB681B781B0119
:103160007A6913437B617B690D4A13407B617B68FD
:103170001B781B027A6913437B61FB687A691A60CA
:10318000BD4606B080BDC046FFFFF3FFFFFFCFFF87
:10319000FFFF7FFFFFFFFFFEFFFFFFE7FFFFFF9F38
:1031A000FFF0FFFF80B588B000AFF8607A600B23B6
:1031B000FB180A1C1A701F23FB180B22BA1812786E
:1031C000013A1A70FB681B68BB611F23FB181B7850
:1031D000DB18DAB21723FB1810321A701723FB180A
:1031E0001B7803229A40131CDA43BB691340BB616E
:1031F0007B685B781A1C1723FB181B789A40131CFA
:10320000BA691343BB611723FB181F22BA1812783F
:1032100016321A701723FB181B7801229A40131CD0
:10322000DA43BB691340BB617B689B781A1C172388
:10323000FB181B789A40131CBA691343BB611F2308
:10324000FB181B78DB18DAB21723FB1819321A7037
:103250001723FB181B7803229A40131CDA43BB691F
:103260001340BB617B68DB781A1C1723FB181B78A3
:103270009A40131CBA691343BB611723FB181F2222
:10328000BA18127892001A701723FB181B780F22B5
:103290009A40131CDA43BB691340BB617B681B78FF
:1032A0001A1C1723FB181B789A40131CBA69134386
:1032B000BB61FB68BA691A60BD4608B080BDC046F4
:1032C00080B582B000AF78600A1CBB1C1A80BB1CA2
:1032D0001A887B685A63BD4602B080BD80B582B053
:1032E00000AF7860081C111CFB1C021C1A703B1CF0
:1032F0000A1C1A80FB1C1B78002B04D13B1C1A886B
:103300007B68DA6303E03B1C1A887B685A64BD461D
:1033100002B080BD80B586B000AF7860081C111C7B
:10332000FB1C021C1A70BB1C0A1C1A707B68A822AA
:103330009B58FB60FB1C1B78092B1FD89A001C4B69
:10334000D3181B689F4603237B6100233B611BE06E
:103350000C237B6102233B6116E030237B61042355
:103360003B6111E0C0239B007B6108233B610BE0C4
:10337000C0231B017B610A233B6105E0C0239B0145
:103380007B610C233B61C0467B69DA43FB681340D9
:10339000FB60BB1C1A783B699A40131CFA68134304
:1033A000FB607B68A821FA685A50BD4606B080BD14
:1033B00010EC001080B582B000AF786039603B68D7
:1033C0005A687B681A653B689A687B685A653B68EF
:1033D0001A687B68DA64BD4602B080BD80B584B0EF
:1033E00000AFF8607A600B23FB180A1C1A70FB68A8
:1033F000181CFEF7A7FCFB681B680B22BA18127892
:103400009200111C0F228A40D2431A407B681B682D
:103410000B217918097889008B401A43FB681A60E0
:103420000B23FB181A787B685968FB6804329200FA
:10343000D150BD4604B080BD80B584B000AFF86007
:103440007A600B23FB180A1C1A70FB68181CFEF725
:1034500079FC0B23FB181A787B681968FB68083223
:103460009200D150BD4604B080BDC04680B582B048
:1034700000AF7860081C111CFB1C021C1A70BB1CDE
:103480000A1C1A707B685B6FFA1C12785200111CC0
:1034900003228A40D2431A407B685A677B685A6F7E
:1034A000BB1C1B78F91C097849008B401A437B68C8
:1034B0005A67BD4602B080BD80B582B000AF78606B
:1034C0003960074B04225A63054B7A681A62044B31
:1034D0003A685A62024B9B6A181CBD4602B080BD16
:1034E0000000034080B582B000AF78603960074BC0
:1034F00000225A63054B7A681A62044B3A685A6292
:10350000024B9B6A181CBD4602B080BD0000034000
:10351000F0B587B000AFF860B960124A042151637A
:10352000104AF96811620F4AB96851620D4AD26AAD
:103530003A6000227A603A6812007A6100223A61A9
:10354000084A926A131C0022141C3A691A43151C7B
:103550007A692243161C2B1C341C181C211CBD46E6
:1035600007B0F0BD0000034080B582B000AF7860C6
:103570007B689B6BDBB27F229343DBB2181CBD469A
:1035800002B080BD80B582B000AF786039607B68E2
:103590003A68DA64BD4602B080BDC04680B584B0EA
:1035A00000AF786039601023FB607B68181C00F066
:1035B0009DF83B68DB79002B02D03B68DB79FB6030
:1035C0003B681A687968FB68081C111C1A1C00F01B
:1035D000B5F83B689B79013B5A00FB685B080133F7
:1035E0001B021343194A1A437B68DA633B681B7951
:1035F000013B1B06812252001A437B685A633B68D9
:103600005B79002B09D07B685A6B3B685B79013B87
:103610001B041A437B685A6308E07B685A6B3B685B
:103620001B79013B1B041A437B685A637B68A02209
:10363000D2009A637B6801225242DA643B681B899C
:103640001A1C7B681A64BD4604B080BD01000300EB
:1036500080B582B000AF78600A1CBB1C1A807A6803
:1036600084235B00D258E023DB04134014D1C0460E
:103670007B68181CFFF778FF031E802BF8D07A6850
:1036800080239B01101C191CFFF77CFFBB1C1A88B0
:103690007B6880215A5005E0BB1C19887A68C023DA
:1036A0005B00D150BD4602B080BDC04680B584B03D
:1036B00000AF78607A6886235B00D258E023DB0491
:1036C000134005D17B685A6D0E23FB181A8006E063
:1036D0007A688E235B00D2580E23FB181A800E23C3
:1036E000FB181B88181CBD4604B080BD80B582B095
:1036F00000AF78607A689023DB059A4203D07B683C
:103700000C4A934203D10C4B181C00F083F97B68E0
:103710000322DA60C0467B68DB6801221340FAD0DE
:103720007B681B6C0F2293431A1C7B681A64BD468E
:1037300002B080BD000200480800004880B58EB08D
:1037400000AFF860B9607A60BB68632B5CD97B68B6
:10375000002B59D0FEF7CAFD031C181C6421FFF78B
:10376000ABFE031C3B62BB68181C6421FFF7A4FE80
:10377000031CBB600123FB620123BB62284B7B62FD
:10378000274B3B6324E03B6A3A6B5A43111CBB68EE
:103790007A685343081C191CFFF78EFE031CFB615B
:1037A000FB699B0ABB61FB699B059B0D7B61BB6948
:1037B0001B4A934209D87A697B6A9A4205D27B698F
:1037C0007B62BB69BB623B6BFB623B6B013B3B6358
:1037D0003B6B002BD7D1FB6A802212021A43FB6895
:1037E0001A61FB685B690F4A1A407B68013B9B02C8
:1037F0001A43BB6A013B1B041A43FB685A61372317
:10380000FB1800221A7003E03723FB1801221A70FC
:103810003723FB181B78181CBD460EB080BDC04670
:10382000FF030000EF8000FC80B584B000AFF860BB
:10383000B9603B60FB1D1A70FA6884235B00D358A3
:103840000E4A1340191CFA6884235B00D150FA68B1
:1038500084235B00D3580A4A1A403B681902BB68AC
:103860001943FB1D1B781B060B431A43111CFA68F6
:1038700084235B00D150BD4604B080BDFFFFFFF83C
:10388000C0C0FFF880B584B000AFF860B9603B609D
:10389000FB1D1A70FA6886235B00D358104A134048
:1038A000191CFA6886235B00D150FA6886235B00F6
:1038B000D3580C4A1A403B681902BB681943FB1DD8
:1038C0001B781B060B431343802252051A43111C1D
:1038D000FA6886235B00D150BD4604B080BDC04667
:1038E000FFFFFFF8C0C0FFEF80B584B000AFF86005
:1038F0007A600B23FB180A1C1A70FA6886235B0097
:10390000D3580E4A1340191CFA6886235B00D15025
:10391000FA6886235B00D358094A1A407B681B0269
:103920001A430B23FB181B781B061A43111CFA6859
:1039300086235B00D150BD4604B080BDFFFFFFF879
:10394000FFC0FFFF80B584B000AFF8607A600B2342
:10395000FB180A1C1A70FB689B690B22BA181278B4
:10396000072191400A1CD2431A400B23FB181B78F5
:10397000796899400B1C1A43FB689A61BD4604B0F4
:1039800080BDC04680B584B000AFF8607A600B237C
:10399000FB180A1C1A70FA6884235B00D3580B22A8
:1039A000BA181278072191400A1CD2431A400B23FF
:1039B000FB181B78796899400B1C1A43111CFA6894
:1039C00084235B00D150BD4604B080BD80B584B077
:1039D00000AFF8607A600B23FB180A1C1A70FA68B3
:1039E00086235B00D3580B22BA1812780721914026
:1039F0000A1CD2431A400B23FB181B7879689940A4
:103A00000B1C1A43111CFA6886235B00D150BD467B
:103A100004B080BD80B582B000AF78607B68044A96
:103A2000934202D10820FEF785FBBD4602B080BD5F
:103A30000800004880B584B000AF786039603B1C56
:103A40001B785B075B0FDBB21A1CBB1C1B889B053A
:103A50009B0D9BB21B041343FB607A68F8235B0049
:103A6000F968D150FB1C1B78DB06DB0FDBB21A07B1
:103A7000FB1C1B781B079B0FDBB29B061A43FB1C2E
:103A80001B789B06DB0FDBB25B071343FB60FB1C61
:103A90001B785B06DB0FDBB29B07FA681343FB6006
:103AA0007A68F8235B00D258FB6813438022120621
:103AB0001A43111C7A68F8235B00D150BD4604B04C
:103AC00080BDC04680B582B000AF78607B6884223C
:103AD0009B58802292041A437B6884215A50BD4629
:103AE00002B080BD80B582B000AF78607B68842270
:103AF0009B58044A1A407B6884215A50BD4602B044
:103B000080BDC046FFFFFFFD80B582B000AF78608A
:103B10007B6884229B588022D2041A437B688421CC
:103B20005A50BD4602B080BD80B582B000AF78600B
:103B30007B6884229B58044A1A407B6884215A502F
:103B4000BD4602B080BDC046FFFFFFFB80B500AFA1
:103B5000034BFF221A600120FEF7ECFABD4680BD40
:103B60000005014080B582B000AF78603960FFF792
:103B7000EDFF3B685A697B681A603B685B6880228E
:103B800012021A437B6880215A503B689A687B680E
:103B9000A0215A503B68DA687B68A4215A503B68E0
:103BA00019697A68A0239B00D1503B681A687B682A
:103BB000B8215A50BD4602B080BDC04680B584B021
:103BC00000AFF860B9603B60FB1D1A70FB1D1B78ED
:103BD000002B09D1BB680A4A1340191CFB683A68DC
:103BE00028329200D15008E0BB68064A1340191CE5
:103BF000FB683A6828329200D150BD4604B080BDBF
:103C00001F07000000001F0780B584B000AF786078
:103C10007B6880229B58802212061A437B68802191
:103C20005A500F23FB1800221A701CE00F23FB18B8
:103C30001A78114B9200D358BB60BB6880229A5807
:103C4000C0239B02134007D0C046BB6880229A580D
:103C500080235B051340F8D10F23FB181A780F233C
:103C6000FB1801321A700F23FB181B78012BDDD9CA
:103C7000BD4604B080BDC04638EC001080B584B0AD
:103C800000AF78600A1CFB1C1A70FB1C1B78032B0E
:103C900004D9FB1C1B78043BFB6002E0FB1C1B7877
:103CA000FB607A68A0235B00D3580F229343191C52
:103CB0007A68A0235B00D1507A68A0235B00D258B9
:103CC000FB681A43111C7A68A0235B00D150BD46E3
:103CD00004B080BD80B582B000AF786039607A688A
:103CE0003B685B68101C191C0022002300F030F8B0
:103CF0007A683B685B68101C191C0122002300F0E5
:103D000027F87A683B689B68101C191C0022012365
:103D100000F01EF87A683B689B68101C191C012291
:103D2000012300F015F83B681A697B6880215A501E
:103D30003B68DA687B68B8215A507A683B681B6830
:103D4000101C191CFFF776FEBD4602B080BDC046B0
:103D500080B58CB000AFF860B9603B60FB1D1A7095
:103D6000FB1D1B78002B19D10823FB62E023DB002D
:103D70007B620023BB621F233B620823FB181B7876
:103D8000DB06DB0EDBB2FB610923FB181B785B074C
:103D90005B0FDAB21B23FB181A7019E01823FB62C1
:103DA000E023DB047B621023BB62F8235B033B62EE
:103DB0000A23FB181B78DB06DB0EDBB2FB610B234F
:103DC000FB181B785B075B0FDAB21B23FB181A701A
:103DD000FB683A6828329200D3587B617B6ADA43E9
:103DE0007B6913407B611B23FB181A78FB6A9A409E
:103DF000131C7A6913437B613B6ADA437B69134086
:103E00007B61BB6AFA699A40131C7A6913437B6130
:103E1000FB683A68283292007969D150BD460CB0EF
:103E200080BDC04680B584B000AF78600A1CFB1C22
:103E30001A707B6880229B58FB60FB6803229343C7
:103E4000FB60FB1C1B78FA681343FB607B688021D6
:103E5000FA685A50BD4604B080BDC04680B586B0F1
:103E600000AFF860B9607A607A68BB689A4202D99C
:103E7000BB680133BB60FB68C0229B587B617B69D8
:103E8000032293437B617A69BB6813437B61FB68C0
:103E9000C0217A695A50BD4606B080BD80B584B055
:103EA00000AF78607B68C0229B58FB60FB680322F0
:103EB0009343FB607B68C021FA685A50BD4604B04A
:103EC00080BDC04680B584B000AF78603960002303
:103ED000BB600023FB600BE0124BFA689200D258E3
:103EE0007B689A4201D1FB68BB60FB680133FB60D1
:103EF000FB68012BF0D93A68BB689A4202D23B6852
:103F000001333B607B68C0229A583B680333191C1D
:103F100001238B401A437B68C0215A50BD4604B030
:103F200080BDC04638EC001080B582B000AF78602C
:103F30000A1CFB1C1A70FB1C1B78002B08D17B6829
:103F400080229B5801221A437B6880215A500BE043
:103F5000FB1C1B78012B07D17B6884229B58012214
:103F60001A437B6884215A50BD4602B080BDC046CA
:103F700080B584B000AF786039607B68181CFFF7AB
:103F8000B1FD7B6884229B58FB60FB683022934321
:103F9000FB603B681B781B079B0FDBB21B01FA68B9
:103FA0001343FB603B681B7803221340DBB2002BFA
:103FB00003D0FB6880221343FB607B688421FA688E
:103FC0005A503B685B68154A1A43111C7A68902363
:103FD0005B00D1503B689B6801221A43111C7A6830
:103FE00092235B00D1503B681B7803221340DBB265
:103FF000022B0BD17A6892235B00D35880225202A5
:104000001A43111C7A6892235B00D1507B68181CFC
:10401000FFF758FDBD4604B080BDC04600808080DB
:1040200080B584B000AF78600A1CFB1C1A707A68F7
:10403000E0235B00D358FB60FB68F0229343FB60F6
:10404000FB1C1B781B01FA681343FB607A68E023B2
:104050005B00F968D150BD4604B080BD80B586B024
:1040600000AF786039601723FB1800221A700FE048
:104070001723FB181A784A4B9200D358181CFFF7E5
:1040800053FD1723FB181A781723FB1801321A70F7
:104090001723FB181B78012BEAD900233B613B68EF
:1040A0001B7803221340DBB2002B02D080231B01BC
:1040B0003B611723FB1800221A7029E01723FB1815
:1040C0001A78374B9200D35884229B58FB60FB68C8
:1040D000344A1340FB603B681B781B079B0FDBB225
:1040E0001B02FA681343FB60FA683B691343FB60E9
:1040F0001723FB181A782A4B9200D3588421FA68A8
:104100005A501723FB181A781723FB1801321A701C
:104110001723FB181B78012BD0D93B685B68224A18
:104120001A43111C7A6880239B00D1503B689B681E
:1041300001221A43111C7A6881239B00D1503B68ED
:104140001B7803221340DBB2022B0BD17A68812348
:104150009B00D358802252021A43111C7A68812393
:104160009B00D1501723FB1800221A700FE0172371
:10417000FB181A780A4B9200D358181CFFF7C4FC9E
:104180001723FB181A781723FB1801321A7017230C
:10419000FB181B78012BEAD9BD4606B080BDC0468E
:1041A00038EC0010FFFCFFFF0080800080B588B075
:1041B00000AFF860B9607A607B681B7BBB61FB680D
:1041C00088229B587B61BB6801229A40131CDA430A
:1041D0007B6913407B61BB68BA699A40131C7A699A
:1041E00013437B61FB6888217A695A507B685B7B4B
:1041F0005BB2002B2ADB0023FB61BB68012B0AD1D9
:104200000823FB61FB68B0229B581E4A1A40FB68DA
:10421000B0215A500DE0BB68002B0AD10023FB618E
:10422000FB68B0229B581F2293431A1CFB68B021E5
:104230005A50FB68B0229B587A68527B51B2FA6997
:1042400091400A1C1A43FB68B0215A50FB68C822EF
:104250009A587B685B681A43FB68C8215A50FB6810
:10426000D0229A587B689B681A43FB68D0215A5029
:104270007B681968FB68BA6880329200D150BD46ED
:1042800008B080BDFFE0FFFF80B500AFBD4680BD38
:1042900080B582B000AF786039607B681A6C3B688B
:1042A0001A437B681A64BD4602B080BD80B582B0F7
:1042B00000AF786039607B681B6C3A68D2431A4063
:1042C0007B681A64BD4602B080BDC04680B582B02E
:1042D00000AF78607B689B6BDBB27F229343DBB2DD
:1042E000181CBD4602B080BD80B582B000AF7860BA
:1042F00039603B68802252029A407B689A66BD46CC
:1043000002B080BD80B582B000AF786039607A6855
:1043100084235B00D2583B681A43111C7A688423BB
:104320005B00D150BD4602B080BDC04680B582B0B2
:1043300000AF786039607A6884235B00D3583A68AC
:10434000D2431A40111C7A6884235B00D150BD46C9
:1043500002B080BD80B582B000AF78607A688C23EF
:104360005B0080210902D150BD4602B080BDC0462D
:1043700080B582B000AF78607A688A235B00D2583B
:1043800080235B0113405A1E9341DBB2181CBD46CB
:1043900002B080BD80B582B000AF78607A688A23B1
:1043A0005B00D25880231B0113405A1E9341DBB29D
:1043B000181CBD4602B080BD80B582B000AF7860E9
:1043C00039607A6886235B00D2583B681A43111C17
:1043D0007A6886235B00D150BD4602B080BDC046DE
:1043E00080B582B000AF786039607A6886235B0060
:1043F000D3583A68D2431A40111C7A6886235B006E
:10440000D150BD4602B080BD80B582B000AF7860AB
:104410007A688C235B008021C901D150BD4602B06F
:1044200080BDC04680B582B000AF78607A688A23CC
:104430005B00D358082213405A1E9341DBB2181C6C
:10444000BD4602B080BDC04690B585B000AF786073
:104450000F23FB1800221A707B685B685B680F22D1
:10446000BC189847031C23700F23FB181B78181CDB
:10447000BD4605B090BDC04690B587B000AFF860AE
:10448000B9607A601723FB1804221A70FB685B6816
:1044900029229B5C002B00D00CE01723FC18F96844
:1044A000BA687B68081C111C1A1C00F031F8031C48
:1044B0002370C0461723FB181B78181CBD4607B095
:1044C00090BDC04690B587B000AFF860B9607A6023
:1044D0001723FB1804221A70FB685B682A229B5C76
:1044E000002B00D00CE01723FC18F968BA687B6831
:1044F000081C111C1A1C00F073F8031C2370C04622
:104500001723FB181B78181CBD4607B090BDC0468A
:1045100080B586B000AFF860B9607A601723FB18E9
:1045200004221A70FB689B683B61FB685B68292268
:104530009B5C002B4CD11723FB1802221A703B699D
:104540001B7EDBB201225340DBB2002B40D0BB68A4
:10455000002B39D07B68002B36D03B69BA681A60D3
:104560003B697A689A603B690022DA603B69012204
:104570001A76FB685B682B229B5C002B0DD0FB68D6
:104580001B68181CFFF7E6FEFB681A688023DB0532
:10459000101C191CFFF7B6FE07E0FB681A688023A1
:1045A0009B01101C191CFFF773FE1723FB18002238
:1045B0001A70FB681968FB685B682D229B5C081CFD
:1045C000191CFFF791FE03E01723FB1803221A7052
:1045D0001723FB181B78181CBD4606B080BDC046CB
:1045E00080B586B000AFF860B9607A601723FB1819
:1045F00004221A70FB689B683B61FB685B682A2297
:104600009B5C002B48D11723FB1802221A703B69D0
:104610005B7EDBB201225340DBB2002B3CD0BB6897
:10462000002B35D07B68002B32D03B69BA685A60CA
:104630003B697A681A613B6901225A763B6900221C
:104640005A61FB685B682C229B5C002B13D0FB68D3
:104650001B68181CFFF7D8FEFA687B68101C191C31
:1046600000F03EF9FB681A68C023DB05101C191C1A
:10467000FFF7A2FE07E0FB681A68C0231B02101CAC
:10468000191CFFF705FE1723FB1800221A7003E020
:104690001723FB1803221A701723FB181B78181C0A
:1046A000BD4606B080BDC04680B584B000AF78601E
:1046B0007B689B68FB60FB68DA68FB689B689A42D2
:1046C00041D27B685B682B229B5C002B28D01AE0D0
:1046D000FB68DA68FB689B689A4212D27B681968AB
:1046E000FB681A68FB68DB68D3181B789BB2081C50
:1046F000191CFEF7ADFFFB68DB685A1CFB68DA602B
:1047000001E0C04655E07B681B68181CFFF730FECF
:10471000031C1A1C01235340DBB2002BD8D148E004
:104720007B681968FB681A68FB68DB68D3181B781C
:104730009BB2081C191CFEF78BFFFB68DB685A1C38
:10474000FB68DA6035E07B681B68181CFFF722FE07
:10475000031E2ED07B685B682B229B5C002B08D04D
:104760007B681A688023DB05101C191CFFF7DEFD2F
:1047700007E07B681A6880239B01101C191CFFF757
:1047800095FDC0467B681B68181CFFF79FFD031E44
:10479000802BF7D0FB6800221A76FB6800221A6093
:1047A0007B685B689B68002B03D07B685B689B68B9
:1047B0009847BD4604B080BD90B585B000AF786025
:1047C0007B689B68FB607B685B682C229B5C002B92
:1047D00051D033E0FB685A69FB681B699A4211D2D9
:1047E000FB685A68FB685B69D4187B681B68181CF7
:1047F000FEF75CFF031CDBB22370FB685B695A1C8D
:10480000FB685A61FB685A69FB681B699A4215D1BB
:10481000FB6800225A767B681A68C023DB05101CEF
:10482000191CFFF7DDFD7B685B68DB68002B04D09B
:104830007B685B68DB6898470CE00BE07B681B6873
:10484000181CFFF7EFFD031C1A1C01235340DBB2B9
:10485000002BBFD1FB685A69FB681B699A423CD2A6
:10486000FB681A69FB685B69D31A7A68101C191C0B
:1048700000F036F831E0FB685A69FB681B699A4220
:1048800011D2FB685A68FB685B69D4187B681B68A7
:10489000181CFEF70BFF031CDBB22370FB685B697F
:1048A0005A1CFB685A61FB685A69FB681B699A428B
:1048B00013D1FB6800225A767B681A68C0231B025A
:1048C000101C191CFFF7F2FC7B685B68DB68002B8F
:1048D00003D07B685B68DB689847BD4605B090BD38
:1048E00080B584B000AF786039600023FB607B68DE
:1048F0005B682C229B5C1A1C01239340BB603A68C6
:10490000BB689A4203D23B68013BFB6002E0BB6894
:10491000013BFB607B6819687B685B682C229A5CB2
:10492000FB68081C111C1A1CFEF7DEFFBD4604B014
:1049300080BDC04680B582B000AF021CFB1D1A705E
:10494000064BFA1D1278111C1F220A4001219140CA
:104950000A1C1A60BD4602B080BDC04600E100E0FE
:10496000B0B582B000AF021C3960FB1D1A70FB1D90
:104970001B787F2B2FD92D4CFB1D1B781A1C0F2366
:104980001340083B9908294AFB1D1B78181C0F236C
:104990000340083B9B0806339B00D3185B68FA1D55
:1049A0001278101C03220240D200101CFF22824009
:1049B000D2431A403B689B01FF200340F81D00785A
:1049C000051C03202840C00083401A438B1D9B0018
:1049D000E3185A6026E0164CFB1D1B785BB29B085F
:1049E0001349FA1D127852B29208C03292005258FE
:1049F000F91D0978081C03210140C900081CFF218A
:104A00008140C94311403A689201FF200240F81DDD
:104A10000078051C03202840C00082400A43C033B0
:104A20009B001A51BD4602B0B0BDC04600ED00E08B
:104A300000E100E080B582B000AF7860081C111C76
:104A4000FB1C021C1A70BB1C0A1C1A70FB1C187879
:104A5000FB1C1B787A6806339B00D3185B6807221F
:104A600093431A1CBB1C1B781A437968831D9B0057
:104A7000CB185A60BD4602B080BDC04680B582B03A
:104A800000AF78607B681B6C0F22934302221A43AD
:104A90007B681A64BD4602B080BDC04680B582B056
:104AA00000AFFB1D00221A70314A324B101C03214B
:104AB0001A1CFDF73BFA304A304B101C191CFEF74C
:104AC0006DFD2D4B181C00210022FFF7B3FF2A4B70
:104AD000181C03210022FFF7ADFF274B181C0521EE
:104AE0000022FFF7A7FF244B181C202105220123D9
:104AF000FEF79AFE204B181C002105220023FEF72A
:104B0000C1FE1D4B181CFFF7B9FF194A1C4B101CA6
:104B100002211A1CFDF70AFA174B181C102101225A
:104B2000FEF710FF144B181C10210122FEF72AFF7C
:104B3000114B181C10210022FEF748FF0E4B181CC9
:104B400013210022FEF742FF0A200321FFF708FF8E
:104B50000A20FFF7EFFE09200221FFF701FF0920DD
:104B6000FFF7E8FEFB1D1B78181CBD4602B080BD98
:104B70000001044090EC00100002004840EC0010DE
:104B80004CEC001080B500AF024B181CFFF78CFDF9
:104B9000BD4680BD5405002080B500AF024B181CF7
:104BA000FFF70AFEBD4680BD5405002080B582B0E7
:104BB00000AF78600A1CFB1C1A707B68DA68FB1C6B
:104BC0001B78012199400B1C1A437B68DA60BD46B3
:104BD00002B080BD80B582B000AF786039607B687C
:104BE0005A693B685B041A437B685A61BD4602B050
:104BF00080BDC04680B582B000AF78607B6801227E
:104C0000DA60BD4602B080BD80B582B000AF78608A
:104C10007B681B6B9BB2181CBD4602B080BDC046B2
:104C200080B582B000AF786039607B683A681A61FD
:104C3000BD4602B080BDC04680B582B000AF78608E
:104C40000A1CFB1C1A707B68A4229A58FB1C1B7858
:104C5000012199400B1C1A437B68A4215A50BD4680
:104C600002B080BD80B582B000AF78600A1CFB1C2A
:104C70001A707B68B4229B580C2293431A1CFB1CAD
:104C80001B785B00191C06230B401A437B68B42178
:104C90005A50BD4602B080BD90B587B000AF786075
:104CA0001723FB1801221A701623FB1801221A7011
:104CB0007B681B7F002B00D0AFE07B681B688C22D9
:104CC0009B581622BC18181C01F060F9031C2370B5
:104CD0001623FB181B78002B00D09AE07B689A689B
:104CE0007B681B689B6C101C191CFDF7F3FF7B682D
:104CF0009A687B681B685B88101C191CFEF7E0FA39
:104D00007B689A687B681B689B88101C00211A1CB2
:104D1000FEF7E4FA7B689A687B681B68DB88101CE6
:104D200001211A1CFEF7DAFA7B681B689B6CDB78A2
:104D300002221340DBB2002B08D17B681B689B6CFE
:104D4000DB7804221340DBB2002B08D07B685A6862
:104D50007B681B68DB6B101C191CFDF7F5FF7B687B
:104D600099687B681B6844229B5C081C191CFFF730
:104D700079FF7B685A687B681B69101C191CFFF758
:104D80004FFF7B685A687B685B69101C191CFFF732
:104D900047FF7B689A687B681B681B6C101C191C9A
:104DA000FEF708FB7B68181C00F062F97B68181C92
:104DB00000F03EF87B68181C00F0FEF87B681B686A
:104DC0008C229B581B683B617B681B689B6C1B7B20
:104DD0001B071B0FDBB2FB60FB683A69DA40131C50
:104DE0003B617B683A691A627B6801221A77172354
:104DF000FB1800221A707B681B681B78002B10D0F0
:104E00001723FC187B68181C00F01EFA031C237083
:104E100007E07B6800221A7703E01723FB180222C1
:104E20001A701723FB181B78181CBD4607B090BDDD
:104E300080B582B000AF78607B689A687B681B6839
:104E40005B7C101C00211A1CFEF764FA7B689A68D0
:104E50007B681B689B7C101C02211A1CFEF75AFA07
:104E60007B689A687B681B68DB7C101C03211A1C1A
:104E7000FEF750FA7B689A687B681B681B7D101CE4
:104E800004211A1CFEF746FA7B689A687B681B6847
:104E90005B7D101C05211A1CFEF73CFA7B689A68A2
:104EA0007B681B689B7D101C01211A1CFEF732FADF
:104EB0007B689A687B681B68DB7D101C08211A1CC4
:104EC000FEF728FA7B689A687B681B681B7E101CBB
:104ED00009211A1CFEF71EFA7B689A687B681B681A
:104EE0005B7E101C0A211A1CFEF714FA7B681B68F3
:104EF0001B7A002B05D07B689B68181C0021FFF7EC
:104F00009BFE7B681B685B7A002B05D07B689B68E7
:104F1000181C0221FFF790FE7B681B689B7A002B10
:104F200005D07B689B68181C0321FFF785FE7B6812
:104F30001B68DB7A002B05D07B689B68181C04215A
:104F4000FFF77AFE7B681B681B7B002B05D07B6814
:104F50009B68181C0521FFF76FFE7B681B685B7B55
:104F6000002B05D07B689B68181C0121FFF764FEAD
:104F70007B681B689B7B002B05D07B689B68181C9B
:104F80000821FFF759FE7B681B68DB7B002B05D0EF
:104F90007B689B68181C0921FFF74EFE7B681B6825
:104FA0001B7C002B05D07B689B68181C0A21FFF72F
:104FB00043FEBD4602B080BD80B582B000AF7860D0
:104FC0007B681B684C229B5C002B0ED07B681B68A7
:104FD000196D7B681B6854229A5C7B681B689B6D0B
:104FE000081C111C1A1CFCF7A1FF7B681B685C22C3
:104FF0009B5C002B0ED07B681B68196E7B681B685E
:1050000064229A5C7B681B689B6E081C111C1A1C2E
:10501000FCF78CFF7B681B686C229B5C002B0ED01E
:105020007B681B68196F7B681B6874229A5C7B68BD
:105030001B689B6F081C111C1A1CFCF777FF7B6810
:105040001B687C229B5C002B0ED07B681B68802237
:1050500098587B681B688422995C7B681B6888224F
:105060009B581A1CFCF762FFBD4602B080BDC046CB
:1050700090B585B002AF78607B689A687B681B68E2
:10508000DB69101C01211A1CFEF78CF87B689A68FA
:105090007B681B681B6A101C02211A1CFEF782F831
:1050A0007B689A687B681B685B6A101C03211A1C6A
:1050B000FEF778F87B681B6828229B5C002B0CD0DD
:1050C0007B6898687B681B682822995C7B681B68F2
:1050D00029229B5C1A1CFDF751FE7B681B682A2263
:1050E0009B5C002B0CD07B6898687B681B682A222D
:1050F000995C7B681B682B229B5C1A1CFDF772FE77
:105100007B681B682C229B5C002B09D07B6899680C
:105110007B681B682C229B5C081C191CFDF75AFF3E
:105120007B681B682D229B5C002B09D07B689968EB
:105130007B681B682D229B5C081C191CFDF72EFF49
:105140007B681B682E229B5C002B09D07B689968CA
:105150007B681B682E229B5C081C191CFDF702FF54
:105160007B681B682F229B5C002B13D07B6899689F
:105170007B681B682F229B5C081C191CFDF764FED2
:105180007B6899687B681B6830229B5C081C191C33
:10519000FDF776FE7B681B6831229B5C002B12D0EA
:1051A0007B6898687B681B683122995C7B681B6808
:1051B00032229C5C7B681B6833229B5C0093221C20
:1051C0000323FDF777FE7B681B6837229B5C032B6C
:1051D00018D17B6898687B681B683922995C7B686A
:1051E0001B6838229B5C1A1CFDF728FF7B681B6834
:1051F00036229B5C002B05D07B689B68181C0F2116
:10520000FFF7E8FC7B681B6834229B5C002B05D110
:105210007B681B6835229B5C002B11D07B689968EA
:105220007B681B681A6A7B681B685B6A081C111C18
:105230001A1CFDF749FF7B689B68181CFDF7E6FE0A
:10524000BD4603B090BDC04680B584B000AF786065
:105250000F23FB1801221A707B681B7F012B03D0E0
:105260007B681B7F032B19D17B685A687B685B7B4B
:10527000101C191CFFF79AFC7B681B6828229B5C9A
:10528000002B04D17B689B68181CFFF7B3FC7B687C
:1052900002221A770F23FB1800221A700F23FB1823
:1052A0001B78181CBD4604B080BDC04680B58AB0CE
:1052B00000AF786039602723FB1801221A700023A1
:1052C0003B627B681B7F002B00D1B0E03B68002B6A
:1052D00000D1ACE07B681B6A3B62386A3968FEF734
:1052E000EBF8031CFB617B68DB6ABB617B681B6BB3
:1052F0007B617B681B689B6C1B7801221340DBB2CF
:10530000002B50D0FB695B08FB61FB69002B00D1CF
:105310008DE0FB69494A934200D988E0FB697A69CC
:1053200053435B003B613B69181C4549FEF7C4F8D9
:10533000031C3B617A69BB69D318414AD31AFA69E5
:1053400053435B00FB60FB68181C3D49FEF7B4F853
:10535000031CFB607B689A68FB699BB2013B9BB2B4
:10536000101C191CFDF7ACFF7B689A683B699BB267
:10537000101C00211A1CFDF7B1FF7B689A68FB68BE
:105380009BB2101C01211A1CFDF7A8FF7B685A680C
:105390007B681B69101C191CFFF742FC2723FB18B4
:1053A00000221A7043E0FB69244A93423FD8FB690C
:1053B0007A6953433B613B69181C2149FEF77CF82D
:1053C000031C3B617A69BB69D318FA695343FB60DC
:1053D000FB68181C1A49FEF76FF8031CFB607B681A
:1053E0009A68FB699BB2013B9BB2101C191CFDF72C
:1053F00067FF7B689A683B699BB2101C00211A1CEE
:10540000FDF76CFF7B689A68FB689BB2101C01215A
:105410001A1CFDF763FF7B685A687B681B69101CC8
:10542000191CFFF7FDFB2723FB1800221A70272306
:10543000FB181B78181CBD460AB080BDFFFF00009A
:105440001027000080B588B000AFF860B9607A60BE
:105450001F23FB1801221A70FB681B7F002B00D151
:10546000A4E0FB681B689B6C1B7801221340DBB235
:10547000002B56D0BA687B68D318504A934200D9A3
:1054800094E0BA687B68D3184D4A934200D88DE007
:10549000BB684B4A934200D988E0FB689B68181CA4
:1054A000FFF7B2FB031CBB61BB69BA6853435B00E7
:1054B000181C4249FEF700F8031C7B61BA687B6840
:1054C000D3183E4AD31ABA6953435B00181C3B49B0
:1054D000FDF7F2FF031C3B61FB689A687B699BB296
:1054E000101C00211A1CFDF7F9FEFB689A683B6945
:1054F0009BB2101C01211A1CFDF7F0FEFB685A68D4
:10550000FB681B69101C191CFFF78AFBFB687A6893
:10551000DA62FB68BA681A631F23FB1800221A704C
:1055200044E0BA687B68D318244A93423ED8FB68AB
:105530009B68181CFFF768FB031CBB61BB69BA685A
:105540005343181C1D49FDF7B7FF031C7B61BA6864
:105550007B68D318BA695343181C1849FDF7ACFF90
:10556000031C3B61FB689A687B699BB2101C00219D
:105570001A1CFDF7B3FEFB689A683B699BB2101CCE
:1055800001211A1CFDF7AAFEFB685A68FB681B691B
:10559000101C191CFFF744FBFB687A68DA62FB6891
:1055A000BA681A631F23FB1800221A701F23FB1806
:1055B0001B78181CBD4608B080BDC04610270000EF
:1055C0008713000080B582B000AF78600A1CFB1C16
:1055D0001A707B68DA68FB1C1B78012199400B1C50
:1055E0001A437B68DA60BD4602B080BD80B582B0E8
:1055F00000AF78607B685B69802292021A437B6807
:105600005A61BD4602B080BD80B582B000AF7860FF
:105610007B680122DA60BD4602B080BD80B582B0F1
:1056200000AF78600A1CBB1C1A80BB1C1A887B6800
:105630005A63BD4602B080BD80B582B000AF7860CD
:105640007B681B6B9BB2181CBD4602B080BDC04678
:1056500080B582B000AF78600A1CBB1C1A80BB1CEE
:105660001A887B68DA63BD4602B080BD80B582B01F
:1056700000AF786039607B683A681A61BD4602B055
:1056800080BDC04680B582B000AF78600A1CFB1CAC
:105690001A707B68A4229A58FB1C1B780121994040
:1056A0000B1C1A437B68A4215A50BD4602B080BD32
:1056B00090B587B000AF78601723FB1801221A70ED
:1056C0001623FB1801221A707B681B7F002B00D069
:1056D00097E07B681B68DB6C1622BC18181C00F076
:1056E00083FC031C23701623FB181B78002B00D0AF
:1056F00083E07B689A687B681B689B6B101C191C95
:10570000FCF792FF7B689A687B681B685B88101CBB
:10571000191CFFF783FF7B689A687B681B689B886E
:10572000101C191CFFF794FF7B681B689B6BDB78D0
:1057300002221340DBB2002B08D07B685A687B68DA
:105740001B685B6B101C191CFCF754FF7B685A68C4
:105750007B681B69101C191CFFF788FF7B685A685F
:105760007B685B69101C191CFFF780FF7B68181CA5
:1057700000F0ECF87B68181C00F04EF87B681B68A2
:105780003C229B5C002B0ED07B681B68196C7B68ED
:105790001B6844229A5C7B681B689B6C081C111C6C
:1057A0001A1CFCF7C3FB7B681B68DB6C1B683B6146
:1057B0007B681B689B6B1B791B071B0FDBB2FB60B5
:1057C000FB683A69DA40131C3B617B683A691A62EC
:1057D0007B6801221A771723FB1800221A707B6856
:1057E0001B681B78002B10D01723FC187B68181C33
:1057F00000F08AF9031C237007E07B6800221A7707
:1058000003E01723FB1802221A701723FB181B78DA
:10581000181CBD4607B090BD80B582B000AF78605F
:105820007B681B689B79002B0FD07B689A687B682C
:105830001B685B7B101C00211A1CFDF7A5F97B6817
:105840009B68181C0021FFF71DFF7B681B68DB7934
:10585000002B0FD07B689A687B681B689B7B101CB1
:1058600002211A1CFDF790F97B689B68181C022125
:10587000FFF708FF7B681B681B7A002B0FD07B6843
:105880009A687B681B68DB7B101C03211A1CFDF7E0
:105890007BF97B689B68181C0321FFF7F3FE7B688C
:1058A0001B685B7A002B0FD07B689A687B681B684B
:1058B0001B7C101C01211A1CFDF766F97B689B6894
:1058C000181C0121FFF7DEFE7B681B689B7A002B0A
:1058D0000FD07B689A687B681B685B7C101C082172
:1058E0001A1CFDF751F97B689B68181C0821FFF70B
:1058F000C9FE7B681B68DB7A002B0FD07B689A6837
:105900007B681B689B7C101C09211A1CFDF73CF965
:105910007B689B68181C0921FFF7B4FE7B681B6835
:105920001B7B002B0FD07B689A687B681B68DB7C35
:10593000101C0A211A1CFDF727F97B689B68181CAC
:105940000A21FFF79FFEBD4602B080BD90B583B02F
:1059500000AF78607B689A687B681B685B69101C85
:1059600001211A1CFDF782F87B689A687B681B6826
:105970009B69101C02211A1CFDF778F87B689A6855
:105980007B681B68DB69101C03211A1CFDF76EF88D
:105990007B681B6820229B5C002B0CD07B6898687E
:1059A0007B681B682022995C7B681B6821229B5CBA
:1059B0001A1CFCF76DFE7B681B6822229B5C002B87
:1059C0000CD07B6898687B681B682222995C7B6896
:1059D0001B6823229B5C1A1CFCF78EFE7B681B68ED
:1059E00024229B5C002B09D07B6899687B681B682C
:1059F00024229B5C081C191CFCF750FF7B681B6869
:105A000025229B5C002B09D07B6899687B681B680A
:105A100025229B5C081C191CFCF724FF7B681B6873
:105A200026229B5C002B09D07B6899687B681B68E9
:105A300026229B5C081C191CFCF7F8FE7B681B687F
:105A400027229B5C002B09D07B6899687B681B68C8
:105A500027229B5C081C191CFCF780FE7B681B68D6
:105A600028229B5C002B10D07B6898687B681B68A1
:105A70002822995C7B681B6829229C5C7B681B68D8
:105A80002A229B5C221CFCF785FE7B681B682E2269
:105A90009B5C032B17D17B6898687B681B6830225E
:105AA000995C7B681B682F229B5C1A1CFCF72AFF01
:105AB0007B681B682D229B5C002B04D07B689B6855
:105AC000181CFFF793FD7B681B682B229B5C022B45
:105AD00017D17B681B682C229B5C032B11D17B6840
:105AE00099687B681B689A697B681B68DB69081C7E
:105AF000111C1A1CFCF74CFF7B689B68181CFCF7F8
:105B0000E9FEBD4603B090BD80B584B000AF7860BB
:105B10000F23FB1801221A707B681B7F012B03D017
:105B20007B681B7F032B19D17B685A687B685B7B82
:105B3000101C191CFFF746FD7B681B6820229B5C2C
:105B4000002B04D17B689B68181CFFF75DFD7B6808
:105B500002221A770F23FB1800221A700F23FB185A
:105B60001B78181CBD4604B080BDC04680B588B007
:105B700000AF786039601F23FB1801221A700023E0
:105B80007B617B681B7F002B53D03B68002B50D080
:105B90007B681B6A7B6178693968FDF78DFC031CA3
:105BA000BB617B681B689B6B1B7801221340DBB2D7
:105BB000002B02D0BB695B08BB61BB69002B38D0EE
:105BC000BB691F4A934234D87B685B6A3B613B697F
:105BD0001C4AD31A3B613B69BA6953433B613B6939
:105BE000181C1849FDF768FC031C3B610E23FB18C9
:105BF0003A691A807B689A68BB699BB2013B9BB289
:105C0000101C191CFFF70AFD7B689A680E23FB180D
:105C10001B88101C191CFFF71BFD7B685A687B68EA
:105C20001B69101C191CFFF721FD1F23FB18002204
:105C30001A701F23FB181B78181CBD4608B080BDC6
:105C4000FFFF00001027000080B586B000AF78602D
:105C500039601723FB1801221A707B681B7F002B09
:105C60002DD03B68194A934229D87B689B68181C41
:105C7000FFF7E2FC031C01333B613B68134AD31A74
:105C80003A695343181C1149FDF716FC031CFB60CD
:105C90007B689A68FB689BB2101C191CFFF7D8FC44
:105CA0007B685A687B681B69101C191CFFF7DEFCB7
:105CB0007B683A685A621723FB1800221A70172370
:105CC000FB181B78181CBD4606B080BD10270000CD
:105CD00080B582B000AF786039607B689A693B68B4
:105CE000012199400B1C1A437B689A61BD4602B0A2
:105CF00080BDC04690B585B000AF78607B685B69B9
:105D00000F22BC18181C00F09DF9031C23700F23F0
:105D1000FB181B78012B00D17AE07B682D229B5C5D
:105D2000002B0BD07B68D9687B682C229A5C7B683F
:105D30009B68081C111C1A1CFCF7F8F87B68196892
:105D40007B68DA697B685B7E081C111C1A1CFCF7F7
:105D500057FB7B682E229B5C002B07D07B681A6860
:105D60007B68DB69101C191CFCF75EFB7B689B6A77
:105D7000012B1DD17B681A697B685B685B785B07C8
:105D8000DB0FDBB2191C7B685B685B781B07DB0FE2
:105D9000DBB2101C1A1CFCF795FB7B6819687B684A
:105DA000DA697B689B7E081C111C1A1CFCF74EFBF1
:105DB0007B681A697B685B68101C191CFCF76EFB1A
:105DC0007B681B7E012B1FD17B681A697B681B6A6D
:105DD000101C191CFCF79AFB7B681A687B68DB694E
:105DE000101C191CFCF7FAFA7B681A697B685B6A5D
:105DF000101C191CFCF7A2FB7B681A687B68DB6926
:105E0000101C191CFFF764FF0F23FB1800221A70E7
:105E10000F23FB181B78181CBD4605B090BDC0466B
:105E200080B582B000AF021CFB1D1A70064BFA1D34
:105E30001278111C1F220A40012191400A1C1A608D
:105E4000BD4602B080BDC04600E100E0B0B582B002
:105E500000AF021C3960FB1D1A70FB1D1B787F2BE5
:105E60002FD92D4CFB1D1B781A1C0F231340083B08
:105E70009908294AFB1D1B78181C0F230340083B77
:105E80009B0806339B00D3185B68FA1D1278101C20
:105E900003220240D200101CFF228240D2431A404B
:105EA0003B689B01FF200340F81D0078051C032080
:105EB0002840C00083401A438B1D9B00E3185A60A2
:105EC00026E0164CFB1D1B785BB29B081349FA1D9C
:105ED000127852B29208C03292005258F91D0978D5
:105EE000081C03210140C900081CFF218140C9434F
:105EF00011403A689201FF200240F81D0078051C0D
:105F000003202840C00082400A43C0339B001A513E
:105F1000BD4602B0B0BDC04600ED00E000E100E0CB
:105F200080B582B000AF78607B681B785BB2181CCC
:105F3000FFF776FFBD4602B080BDC04680B582B097
:105F400000AF78607B681A787B685B78191C53B265
:105F5000181CFFF77BFF7B689B78002B03D07B68C6
:105F6000181CFFF7DDFF0023181CBD4602B080BDE2
:105F700080B582B000AF78607B68DB688022520019
:105F80001A437B68DA60BD4602B080BD80B582B03E
:105F900000AF78607B685B7B01225340DBB2002B53
:105FA0000FD07B689A687B681B7B101C191CFCF760
:105FB0006DFE7B689B68181CFFF7DAFF7B68012287
:105FC0005A730023181CBD4602B080BD80B582B054
:105FD00000AF78607B68DB68802252001A437B68E0
:105FE000DA60BD4602B080BD80B582B000AF786097
:105FF0007B685B7B01225340DBB2002B0FD07B68B8
:106000009A687B681B7B101C191CFCF7CFFA7B6815
:106010009B68181CFFF7DAFF7B6801225A73002384
:10602000181CBD4602B080BD80B582B000AF78605C
:1060300039607B68DA6A3B681A437B68DA62BD467E
:1060400002B080BD80B584B000AF78607B689B7B78
:1060500001225340DBB2002B2BD07B681A687B688F
:106060001B7B101C191CFCF785F97B681A687B6880
:106070005B7B101C191CFCF797F97B681A687B681E
:106080005B68101C191CFCF75DF97B689B68002B92
:1060900007D07B681A687B689B68101C191CFFF787
:1060A000C3FF0F23FB1800221A707B6801229A732A
:1060B00003E00F23FB1800221A700F23FB181B7834
:1060C000181CBD4604B080BD80B582B000AF7860BA
:1060D00039607B6880229A583B681033191C012371
:1060E0008B401A437B6880215A50BD4602B080BD68
:1060F00080B582B000AF78600A1CFB1C1A707B6808
:106100001B6C0A4A1340802212021A437B681A64ED
:106110007B681A6CFB1C1B781343802212021A4303
:106120007B681A64BD4602B080BDC046F07FFFFFA9
:1061300080B584B000AF78607B681B7D022B58D19E
:106140007B68DA687B689B68101C191CFDF70AFDE8
:106150000023FB6038E07B68FA689200D358196826
:106160007B68FA689200D3585B68081C191CFDF71D
:10617000B1FD7B68FA689200D3581B68181C032194
:10618000FDF750FE7B68FA689200D3581B7A012213
:106190005340DBB2002B06D07B68DA68FB68101C2A
:1061A000191CFFF791FF7B681A69FB68DBB2101CB2
:1061B000191CFDF7B9FE7B68FA689200D3580022DB
:1061C0005A72FB680133FB60FB68012BC3D97B6803
:1061D0001B69181C0021FFF78BFF7B685B7D002B80
:1061E00004D07B68DB68181CFDF70EFD7B6800227D
:1061F0001A757B681B7D181CBD4604B080BDC04667
:1062000080B582B000AF78607B681B790122534073
:10621000DBB2002B05D07B681B6898477B680122A6
:106220001A710023181CBD4602B080BD80B500AFB6
:10623000054A0549054BCB5A9BB205490B4099B21B
:10624000024BD152BD4680BD000501405C0B0000F1
:10625000FFFEFFFF80B582B000AF021CFB1D1A706D
:106260000B4A0B4B1B899BB206218B439BB21381BC
:106270000749074B1B899AB2FB1D1B789BB2DB18A1
:106280009BB213439BB20B81BD4602B080BDC0469A
:106290000000054080B586B000AF78607B681B7A4F
:1062A000002B00D184E000237B617B685A687B6906
:1062B000DB00D3183B613B6900221A603B691A7905
:1062C00002218A431A713B691A7901210A431A7122
:1062D0003B691A7904218A431A713B691A790821AA
:1062E0008A431A717B6901337B617B685B7A1A1E72
:1062F0007B699A42D9D87B685A68AE235B0000213B
:10630000D1507B685A68AC235B000021D1507B6878
:106310005A68A6235B000021D1507B685A68A823E5
:106320005B000021D1507B685A68AA235B000021E2
:10633000D1507B685B6800225A647B685B680022EE
:106340001A637B685B6800229A627B685B68002244
:106350009A617B685B6800225A617B685B680022F7
:106360005A627B685B680022DA627B685A68A42301
:106370005B000021D1507B685B6800221A6101201C
:10638000FFF768FF00F0F4FF031CFB60FB68181CBC
:1063900000F0AEF87B685A68A6235B00D3580A2B3E
:1063A00003D17B6800221A7202E07B6801221A7214
:1063B0007B681B7A181CBD4606B080BD80B584B0D2
:1063C00000AF021C3960FB1D1A70104B5B68BB608C
:1063D0000F23FB1805221A70BA68A6235B00D35856
:1063E0000A2B0BD1FB1D1A783B68101C191C0022CC
:1063F00001F008F9021C0F23FB181A700F23FB1879
:106400001B78181CBD4604B080BDC046180700208C
:1064100080B588B000AFB9607A603B600F23FB188D
:10642000021C1A70314B5B68BB610F23FB181B7891
:10643000181C00F0F5FE031C7B612C4B1A687B696D
:10644000DB00D3185B683B611F23FB1805221A7021
:10645000BA69A6235B00D3580A2B40D1BA683B68BF
:10646000D2183B699A423AD8BA697B69DB00D318E3
:106470001B79DB07DB0FDBB2002B04D11F23FB18DA
:1064800003221A702BE0BA697B69DB00D3181B79F1
:106490009B07DB0FDBB2002B04D11F23FB1802226A
:1064A0001A701CE0BB697A69D200D158BA69B2236C
:1064B0005B00D15079683A68BB68081C111C1A1C33
:1064C00001F008FB021C1F23FB181A701F23FB1886
:1064D0001B78002B03D01F23FB1801221A701F23E7
:1064E000FB181B78181CBD4608B080BD180700209B
:1064F00080B584B000AF7860254B5B68FB607B683B
:10650000032B07D1FA68A8235B00DD21D15000F0EE
:1065100041F839E07B68012B18D1FA68A8235B00A9
:10652000D3580F221340191CFA68A8235B00D150DE
:10653000FA68A8235B00D358D0221A43111CFA68CA
:10654000A8235B00D15000F041F81DE07B68022BCE
:1065500018D1FA68A8235B00D358F0221340191C05
:10656000FA68A8235B00D150FA68A8235B00D358CF
:106570000D221A43111CFA68A8235B00D15000F0C9
:1065800025F801E000F076F8BD4604B080BDC046B5
:106590001807002080B582B000AF0B4B5B687B60B2
:1065A000094B9B7A012B07D17B6800221A610120DD
:1065B000012100F057F904E07A68A6235B00092165
:1065C000D150BD4602B080BD1807002080B582B012
:1065D00000AF274B5B687B607A68A8235B00D358C9
:1065E000AD2B1AD004D80D2B29D02D2B07D038E095
:1065F000D22B0BD0DA2B19D0D02B29D031E07B68ED
:1066000000221A61302000F099F92DE07B68012208
:106610001A61302000F092F926E07B6800221A61AE
:1066200000200721012200F0C3F91DE07B68012250
:106630001A6100200721012200F0BAF914E07B68FA
:1066400001221A6120200321002200F0B1F90BE0A1
:106650007B6800221A6120200321002200F0A8F9A3
:1066600002E0FFF797FFC046BD4602B080BDC046BE
:106670001807002080B500AF00F00EF8031E09D106
:1066800000F056F8031E05D100F09EF8031E01D15C
:10669000FFF780FFBD4680BD80B582B000AF234BC1
:1066A0005B683B6001237B603A68A8235B00D3589A
:1066B0002E2B0AD004D8202B1FD02A2B0DD02CE053
:1066C0002F2B22D0A02B10D027E03B6800221A618C
:1066D0000A20002100F0C6F822E03B6800221A617F
:1066E0000420302100F0EEF81AE03B6800221A6125
:1066F0000720022100F0B6F812E03B6800221A6180
:106700000320022100F0AEF80AE03B6800221A6183
:106710000820022100F0A6F802E000237B60C046BA
:106720007B68181CBD4602B080BDC046180700201B
:1067300080B582B000AF234B5B683B6001237B6078
:106740003A68A8235B00D358A22B12D004D8022B9E
:106750001FD00A2B15D02CE0E22B02D0F22B20D038
:1067600027E03B6801221A610A20002100F07AF834
:1067700022E03B6801221A610420302100F0A2F8D7
:106780001AE03B6801221A610720022100F06AF832
:1067900012E03B6801221A610320022100F062F836
:1067A0000AE03B6801221A610820022100F05AF831
:1067B00002E000237B60C0467B68181CBD4602B027
:1067C00080BDC0461807002080B582B000AF244BC2
:1067D0005B683B6001237B603A68A8235B00D35869
:1067E000F02B2CD004D80F2B20D0AF2B0CD02FE0C7
:1067F000FA2B12D0FF2B2BD13B6800221A6101200B
:10680000012100F02FF826E03B6800221A610020E9
:106810000721012200F0CCF81DE03B6801221A613B
:1068200000200721012200F0C3F814E03B68012298
:106830001A6120200321002200F0BAF80BE03B6827
:1068400000221A6120200321002200F0B1F802E0AA
:1068500000237B60C0467B68181CBD4602B080BD2B
:106860001807002080B584B000AF78603960144B01
:106870005B68FB6000F046FD3B68012B09D1FA68BC
:10688000A6235B007968D15000F0B0FA00F02EFB2F
:1068900013E03B68022B09D1FA68A6235B007968F4
:1068A000D15000F023FB00F0C3F806E000F01EFB1F
:1068B000FA68A6235B007968D150BD4604B080BD5C
:1068C0001807002080B584B000AF786039601A4B9B
:1068D0005B68FB6000F016FDFA68A6235B00796830
:1068E000D15000F003FBFB681B6A181C00F044FE4B
:1068F000031CBB60BB68002B16D100F0DBFDFB68FE
:106900005A693B68D318181C00F060FE031CBB607A
:10691000BB68002B02D100F08BF80AE0FA68A623CE
:106920005B000921D15004E0FA68A6235B0009212D
:10693000D150BD4604B080BD1807002080B584B09A
:1069400000AF7860194B5B68FB6000F0DBFCFB6814
:106950001B6A181C00F010FE031CBB60BB68002BF8
:106960001BD100F0A7FDFB685A697B68D318181C7F
:1069700000F02CFE031CBB60BB68002B07D100F0AD
:10698000B5FAFA68A6235B000A21D1500AE0FA683A
:10699000A6235B000921D15004E0FA68A6235B001E
:1069A0000921D150BD4604B080BDC0461807002063
:1069B00080B586B000AFF860B9607A601B4B5B6849
:1069C0007B6100F09FFCFB68181C00F091FDFBF759
:1069D000CFF97B68012B08D17B695A697B69483301
:1069E000101C191C01F012F907E07B699A697B6998
:1069F0004833101C191C01F009F901F021F9031C9E
:106A00003B613B69002B09D17A69A6235B00B96819
:106A1000D15000F06BFA00F00BF804E07A69A6237D
:106A20005B000921D150BD4606B080BD180700208B
:106A300080B582B000AF244B5B687B607A68A62388
:106A40005B00D358082B2CD89A00204BD3181B6816
:106A50009F4600F081F827E000F0E8F824E0FBF71B
:106A600087F97B689A697B683433101C191C01F024
:106A7000BDF87A68A6235B000521D15014E000F030
:106A80004BF911E00720032100F072F90CE003201C
:106A9000082100F06DF907E008200A2100F068F9EC
:106AA00002E000F015F8C0467A68A6235B00D358D0
:106AB0000A2B05D07A68A6235B00D358092BBDD1D9
:106AC000BD4602B080BDC046180700200CF0001083
:106AD00080B584B000AF1F4B5B687B6000F0EAFCC0
